:100000008031192800002030850005308400000868
:10001000031918280130F800F701F70B0D28F80B29
:100020000C284A30F700F70B13281628800B0A28F3
:1000300008006A302100990023008C018D01220004
:10004000920191019401930121001E109E141E1132
:100050001F3023008C00FE308D0021001E129E12E6
:100060001E139E171D1404302000A400FA30A500B2
:100070000320A40B3628413066000030F800210030
:100080001D08833978049D000330F700F70B4628DC
:1000900049289D141130F7009D1C5028F70B4C285F
:1000A0001C08FA001B082000A0007A08A1000C30F0
:1000B000A50003200430F80021001D0883397804CE
:1000C0009D000330F700F70B632866289D1411305C
:1000D000F7009D1C6D28F70B69281C08FA001B0807
:1000E0002000A2007A08A3000C30A50003203D28C0
:0200F0006300AB
:020000040001F9
:04000E00A43FFF1EEE
:00000001FF
;PIC16F1827
;CRC=12D2  CREATED="14-jan-20 16:31"
